:100000000C9439000C94A4050C94A4050C94E702FC
:100010000C94A4050C94A4050C94A4050C9443041E
:100020000C94A4050C94A4050C94A4050C94A405AC
:100030000C94A4050C94A4050C94A4050C94A4059C
:100040000C94A4050C94A4050C94A4050C94A4058C
:100050000C94A40500600091800091009B000B545B
:10006000009B00A08000A000A3000B5E00A300A4E2
:10007000800011241FBECFE5D8E0DEBFCDBFE4E590
:10008000F0E040E017C0B591A5913591259105911B
:1000900007FD0CC095918591EF01F92FE82F059090
:1000A0000D92A217B307D9F7FE0104C01D92A21743
:1000B000B307E1F7E137F40731F70E9484030C94AA
:0600C0006100F894FFCF7F
:1000C600813011F130F08230D1F1833009F452C021
:1000D6000895413059F42AB381E090E002C0880FB8
:1000E600991F6A95E2F7822B8ABB089541115CC07D
:1000F6002AB381E090E002C0880F991F6A95E2F763
:10010600809582238ABB0895413059F427B381E054
:1001160090E002C0880F991F6A95E2F7822B87BB91
:100126000895411141C027B381E090E002C0880FD5
:10013600991F6A95E2F78095822387BB089541301F
:1001460059F424B381E090E002C0880F991F6A95A4
:10015600E2F7822B84BB0895411126C024B381E0C7
:1001660090E002C0880F991F6A95E2F78095822376
:1001760084BB0895413059F421B381E090E002C078
:10018600880F991F6A95E2F7822B81BB089541116A
:100196000BC021B381E090E002C0880F991F6A95D9
:0A01A600E2F78095822381BB0895E3
:1001B000813011F130F08230D1F1833009F452C036
:1001C0000895413059F42BB381E090E002C0880FCC
:1001D000991F6A95E2F7822B8BBB089541115CC091
:1001E0002BB381E090E002C0880F991F6A95E2F777
:1001F000809582238BBB0895413059F428B381E068
:1002000090E002C0880F991F6A95E2F7822B88BBA5
:100210000895411141C028B381E090E002C0880FE9
:10022000991F6A95E2F78095822388BB0895413033
:1002300059F425B381E090E002C0880F991F6A95B8
:10024000E2F7822B85BB0895411126C025B381E0DA
:1002500090E002C0880F991F6A95E2F7809582238B
:1002600085BB0895413059F422B381E090E002C08B
:10027000880F991F6A95E2F7822B82BB089541117E
:100280000BC022B381E090E002C0880F991F6A95ED
:0A029000E2F78095822382BB0895F7
:10029A007894813041F018F0823049F00BC09BB756
:1002AA0090649BBF07C09BB790689BBF03C09BB776
:1002BA0090629BBF6130C1F028F0623031F1633047
:1002CA00D1F10895811106C095B79E7F95BF95B764
:1002DA009D7F95BF813009F043C085B78B7F85BF6D
:1002EA0085B7877F85BF0895811106C095B791604C
:1002FA0095BF95B79D7F95BF813091F585B784608D
:10030A0085BF85B7877F85BF0895811106C095B7D8
:10031A009E7F95BF95B7926095BF813031F495B7AE
:10032A009B7F95BF95B7986095BF8230C9F484B713
:10033A008F7B84BF0895811106C095B7916095BFE0
:10034A0095B7926095BF813031F495B7946095BFA7
:10035A0095B7986095BF823019F484B7806484BFDA
:02036A000895F4
:10036C008091A0008823C9F0813009F05EC0109202
:10037C009E0010929D00809160000E94660281E0B8
:10038C000E94D304803131F081E00E94D304883084
:10039C0009F04BC01092A00008958091A3000E9418
:1003AC00660280919D0090919E00843F914080F563
:1003BC008091A3008B3478F481E00E94D3048830C0
:1003CC0051F48091A3008B5F8093A30010929E0048
:1003DC0010929D0008958091A300843278F081E002
:1003EC000E94D304803151F48091A30085508093F6
:1003FC00A30010929E0010929D00089580919D0084
:10040C0090919E00449690939E0080939D00089539
:10041C0081E08093A00010929E0010929D000E949B
:0C042C009005809160000E946602089517
:1004380080E090E042C0FC01EE0FFF1FE80FF91FBB
:10044800EE0FFF1FEF59FF4F20813181232BA1F1C0
:10045800FC01EE0FFF1FE80FF91FEE0FFF1FEF590A
:10046800FF4F228121111DC0FC01EE0FFF1FE80F75
:10047800F91FEE0FFF1FEF59FF4F248135812F5FC2
:100488003F4F3583248323812223B1F0FC01EE0FF3
:10049800FF1FE80FF91FEE0FFF1FEF59FF4F2283D1
:1004A8000BC0FC01EE0FFF1FE80FF91FEE0FFF1F37
:1004B800EF59FF4F2150228301968830910508F4A7
:0404C800BACF08950A
:1004CC00CF939091A100992319F09130F1F03FC096
:1004DC00EDEC8E9FE12D1124E695E695E695F0E086
:1004EC00EF56FF4FC08141E063E082E00E94D800EC
:1004FC0040E064E082E00E94D8006C2F83E00E9410
:10050C00060581E08093A10022C09DEC899F912D6E
:10051C001124969596959695990F292F220F220FB7
:10052C00920F891BE82FF0E0EF56FF4FC08141E09E
:10053C0064E082E00E94D80040E063E082E00E9428
:10054C00D8006C2F83E00E9406051092A100CF9179
:02055C00089500
:10055E008091A000813059F52091600030E08091AB
:10056E00A30090E0AC0145505109241735074CF417
:10057E0081E00E94160580E00E94F6040E94960516
:10058E0008950596821793074CF480E00E94160595
:10059E0081E00E94F6040E948405089580E00E9486
:1005AE00160580E00E94F6040E948A05089580E0F8
:1005BE000E94160580E00E94F6040E948A050895A6
:1005CE001F920F920FB60F9211242F933F934F93BA
:1005DE005F936F937F938F939F93AF93BF93EF939D
:1005EE00FF9380919F00882319F0813039F00CC061
:1005FE0081E080939F000E94A60506C010929F0086
:10060E000E9445050E94A805FF91EF91BF91AF9101
:10061E009F918F917F916F915F914F913F912F910C
:0A062E000F900FBE0F901F9018955B
:10063800813089F028F08230C9F0833011F10895B3
:100648002BB381E090E002C0880F991F6A95E2F70A
:1006580082278BBB089528B381E090E002C0880F01
:10066800991F6A95E2F7822788BB089525B381E030
:1006780090E002C0880F991F6A95E2F7822785BB30
:10068800089522B381E090E002C0880F991F6A950F
:08069800E2F7822782BB0895FE
:1006A00020E030E002C02F5F3F4FF901EE0FFF1F47
:1006B000E20FF31FEE0FFF1FEF59FF4F0190F08184
:1006C000E02DEF2B19F02830310568F32830310583
:1006D00049F481E090E090939C0080939B0088E037
:1006E00090E00895F901EE0FFF1FE20FF31FEE0FE8
:1006F000FF1FEF59FF4F91838083628343831582ED
:080700001482822F932F08954B
:1007080010929F000E9463050E948A040E94E504DB
:100718000E949B050E9472050E94780562E082E0B3
:100728000E944D010E94670444E660E086EB91E078
:100738000E94500344E160E08FEA92E00E94500377
:1007480044E160E086E295E00E94500344E660E000
:1007580080EC94E00E94500360E08CE30E94AC04BB
:060768000E94E703FDCF33
:10076E009C01FC01EE0FFF1FE80FF91FEE0FFF1F9C
:10077E00EF59FF4F80819181892B49F482E090E0FF
:10078E0090939C0080939B0081E090E002C080E0FB
:10079E0090E0F901EE0FFF1FDF01A20FB31FAA0FAA
:1007AE00BB1FAF59BF4F11961C921E9212961C92F0
:1007BE00129713961C921397FD01158214820895B9
:1007CE000F931F93CF93DF93C0E0D0E01FC0FE01C5
:1007DE00EE0FFF1FEC0FFD1FEE0FFF1FEF59FF4F28
:1007EE0084819581892B89F08F010190F081E02D14
:1007FE000995F8018481958101979583848383817E
:10080E00811103C0CE010E94B7032196C830D105D5
:10081E00F0F20E945005DF91CF911F910F91089534
:10082E00813079F028F08230A9F08330E1F008951C
:10083E00613019F48FEF8ABB089561111CC01ABA8A
:10084E000895613019F48FEF87BB0895611113C0BD
:10085E0017BA0895613019F48FEF84BB08956111B2
:10086E000AC014BA0895613019F48FEF81BB089550
:08087E00611101C011BA0895D7
:100886001F920F920FB60F9211242F933F934F93FF
:100896005F936F937F938F939F93AF93BF93EF93E2
:1008A600FF930E941C02FF91EF91BF91AF919F9120
:1008B6008F917F916F915F914F913F912F910F9003
:0808C6000FBE0F901F90189562
:1008CE00CF93DF93C0E0D0E004C0CE010E94B70307
:1008DE002196C830D105C8F310929C0010929B004F
:1008EE0089B7806189BF8FB780688FBF8FB58FBD85
:1008FE001DBC1CBC80E190E09BBD8ABD8DE08EBD11
:06090E00DF91CF91089576
:1009140040E063E081E00E94630040E064E081E045
:100924000E94630042E062E081E00E94630041E0D3
:1009340063E081E00E94D80041E064E081E00E942D
:10094400D80081E08093A0008CE38093A3000E94F0
:04095400900508956D
:10095800CF93DF93C82FD62F0E947E0580EA0E948E
:100968006B058D2F0E946B058C2F0E946B050E94D2
:080978009E05DF91CF91089567
:100980008091A00081110EC08091A200811106C04B
:1009900081E08093A2000E9436050895813011F411
:0609A0001092A200089570
:1009A600813041F028F0823039F0833039F008C0C8
:1009B60089B3089586B3089583B3089580B30895DF
:0409C60080E0089530
:1009CA0061E083E00E94170441E063E082E00E9454
:1009DA00630041E063E082E00E9463000E94360502
:0209EA0008956E
:1009EC00882341F0813059F441E067E082E00E94B5
:1009FC00D800089540E067E082E00E94D800089596
:100A0C00813041F028F0823039F0833039F008958C
:100A1C006BBB089568BB089565BB089562BB0895D0
:100A2C00882341F0813059F441E066E082E00E9475
:100A3C00D800089540E066E082E00E94D800089556
:100A4C000E94A1059091A000992339F0913039F4BE
:100A5C00809160000E94660208950E9466020895CB
:100A6C0060E083E00E94060540E063E082E00E94C3
:0E0A7C00D80040E064E082E00E94D8000895B7
:100A8A0080E00E94F60480E00E9416050E94360566
:060A9A000E948A05089588
:100AA00085B78F7B85BF85B78F7D85BF85B78F7EE7
:040AB00085BF089561
:100AB40088E480B984E486BF11B881B18C7F81B9A0
:020AC400089593
:100AC60041E067E081E00E9463000E948A05089584
:0E0AD60083B984E886BF06B607FEFDCF0895FB
:0C0AE40041E067E082E00E94630008959A
:0C0AF00041E066E082E00E94630008958F
:0C0AFC0084EA86BF06B607FEFDCF089511
:0C0B080041E067E081E00E94D800089501
:0C0B140040E067E081E00E94D8000895F6
:0C0B200060E0809160000E94AC04089529
:0A0B2C0067E081E00E941C030895B9
:060B36000E945A0508951B
:060B3C0084E986BF089564
:060B42008091A30008955C
:040B48000C94000009
:040B4C0078940895FC
:040B5000F894089578
:0A0B5400C0F9A4B0999282F88090D5
:010B5E000195
:010B5F000194
:010B60000193
:00000001FF
