:100000000C9439000C9438060C9438060C948A032E
:100010000C9438060C9438060C9438060C94490459
:100020000C9438060C9438060C9438060C94380658
:100030000C9438060C9438060C9438060C94380648
:100040000C9438060C9438060C9438060C94380638
:100050000C943806006000A68000A600B0000C7862
:1000600000B000B58000B500B8000C8200B800B93F
:10007000800011241FBECFE5D8E0DEBFCDBFE4E590
:10008000F0E040E017C0B591A5913591259105911B
:1000900007FD0CC095918591EF01F92FE82F059090
:1000A0000D92A217B307D9F7FE0104C01D92A21743
:1000B000B307E1F7E137F40731F70E94B1020C947E
:0600C0006100F894FFCF7F
:1000C600813011F130F08230D1F1833009F452C021
:1000D6000895413059F42AB381E090E002C0880FB8
:1000E600991F6A95E2F7822B8ABB089541115CC07D
:1000F6002AB381E090E002C0880F991F6A95E2F763
:10010600809582238ABB0895413059F427B381E054
:1001160090E002C0880F991F6A95E2F7822B87BB91
:100126000895411141C027B381E090E002C0880FD5
:10013600991F6A95E2F78095822387BB089541301F
:1001460059F424B381E090E002C0880F991F6A95A4
:10015600E2F7822B84BB0895411126C024B381E0C7
:1001660090E002C0880F991F6A95E2F78095822376
:1001760084BB0895413059F421B381E090E002C078
:10018600880F991F6A95E2F7822B81BB089541116A
:100196000BC021B381E090E002C0880F991F6A95D9
:0A01A600E2F78095822381BB0895E3
:1001B000813011F130F08230D1F1833009F452C036
:1001C0000895413059F42BB381E090E002C0880FCC
:1001D000991F6A95E2F7822B8BBB089541115CC091
:1001E0002BB381E090E002C0880F991F6A95E2F777
:1001F000809582238BBB0895413059F428B381E068
:1002000090E002C0880F991F6A95E2F7822B88BBA5
:100210000895411141C028B381E090E002C0880FE9
:10022000991F6A95E2F78095822388BB0895413033
:1002300059F425B381E090E002C0880F991F6A95B8
:10024000E2F7822B85BB0895411126C025B381E0DA
:1002500090E002C0880F991F6A95E2F7809582238B
:1002600085BB0895413059F422B381E090E002C08B
:10027000880F991F6A95E2F7822B82BB089541117E
:100280000BC022B381E090E002C0880F991F6A95ED
:0A029000E2F78095822382BB0895F7
:10029A008091B5008823F9F0813009F064C010928A
:1002AA00B3001092B200809161000E946C0281E05A
:1002BA000E943C05803131F081E00E943C05883083
:1002CA0009F051C01092B50080E00E945F0580E0FD
:1002DA000E947F0508958091B8000E946C02809167
:1002EA00B2009091B300843F914080F58091B800AC
:1002FA008B3478F481E00E943C05883051F4809177
:10030A00B8008B5F8093B8001092B3001092B200CD
:10031A0008958091B800843278F081E00E943C050B
:10032A00803151F48091B80085508093B8001092C2
:10033A00B3001092B20008958091B2009091B30078
:10034A0044969093B3008093B200089581E080931D
:10035A00B5001092B3001092B2000E941D0680915F
:08036A0061000E946C0208957D
:100372007894813041F018F0823049F00BC09BB77D
:1003820090649BBF07C09BB790689BBF03C09BB79D
:1003920090629BBF6130C1F028F0623031F163306E
:1003A200D1F10895811106C095B79E7F95BF95B78B
:1003B2009D7F95BF813009F043C085B78B7F85BF94
:1003C20085B7877F85BF0895811106C095B7916073
:1003D20095BF95B79D7F95BF813091F585B78460B4
:1003E20085BF85B7877F85BF0895811106C095B700
:1003F2009E7F95BF95B7926095BF813031F495B7D6
:100402009B7F95BF95B7986095BF8230C9F484B73A
:100412008F7B84BF0895811106C095B7916095BF07
:1004220095B7926095BF813031F495B7946095BFCE
:1004320095B7986095BF823019F484B7806484BF01
:0204420008951B
:1004440080E090E042C0FC01EE0FFF1FE80FF91FAF
:10045400EE0FFF1FEE59FF4F20813181232BA1F1B5
:10046400FC01EE0FFF1FE80FF91FEE0FFF1FEE59FF
:10047400FF4F228121111DC0FC01EE0FFF1FE80F69
:10048400F91FEE0FFF1FEE59FF4F248135812F5FB7
:100494003F4F3583248323812223B1F0FC01EE0FE7
:1004A400FF1FE80FF91FEE0FFF1FEE59FF4F2283C6
:1004B4000BC0FC01EE0FFF1FE80FF91FEE0FFF1F2B
:1004C400EE59FF4F2150228301968830910508F49C
:0404D400BACF0895FE
:1004D800CF93DF939DEC899F912D11249695969546
:1004E8009695E92FF0E0EA55FF4FD081990F292F13
:1004F800220F220F920F891BE82FF0E0EA55FF4FD9
:10050800C0818091B600882319F0813099F022C00B
:1005180041E063E082E00E94D80040E064E082E0CD
:100528000E94D8006D2F83E00E946F0581E08093C0
:10053800B60010C041E064E082E00E94D80040E0CC
:1005480063E082E00E94D8006C2F83E00E946F0570
:0A0558001092B600DF91CF910895D4
:10056200109260000E94F0050E94BE040E944E0597
:100572000E94BD050E942F060E94FF050E940506EB
:1005820062E082E00E94B9010E949B0444E660E0BE
:100592008DE491E00E94560344E660E085E794E032
:1005A2000E94560344E160E08AEE92E00E94560304
:1005B20044E160E08FE895E00E94560344E660E083
:1005C20089E295E00E9456030E941D060E94ED03F7
:0205D200FDCF5B
:1005D4008091B500813059F52091610030E080911F
:1005E400B80090E0AC0145505109241735074CF48C
:1005F40081E00E947F0580E00E945F050E9423063F
:1006040008950596821793074CF480E00E947F05B5
:1006140081E00E945F050E941106089580E00E9417
:100624007F0580E00E945F050E941706089580E020
:100634000E947F0580E00E945F050E9417060895CE
:10064400813089F028F08230C9F0833011F10895A7
:100654002BB381E090E002C0880F991F6A95E2F7FE
:1006640082278BBB089528B381E090E002C0880FF5
:10067400991F6A95E2F7822788BB089525B381E024
:1006840090E002C0880F991F6A95E2F7822785BB24
:10069400089522B381E090E002C0880F991F6A9503
:0806A400E2F7822782BB0895F2
:1006AC0020E030E002C02F5F3F4FF901EE0FFF1F3B
:1006BC00E20FF31FEE0FFF1FEE59FF4F0190F08179
:1006CC00E02DEF2B19F02830310568F32830310577
:1006DC0049F481E090E09093B1008093B00088E001
:1006EC0090E00895F901EE0FFF1FE20FF31FEE0FDC
:1006FC00FF1FEE59FF4F91838083628343831582E2
:08070C001482822F932F08953F
:100714001F920F920FB60F9211242F933F934F9372
:100724005F936F937F938F939F93AF93BF93EF9355
:10073400FF9380916000882319F0813039F00AC05A
:1007440081E0809360000E943A0604C01092600029
:100754000E94CA05FF91EF91BF91AF919F918F9134
:100764007F916F915F914F913F912F910F900FBEA9
:060774000F901F90189584
:10077A009C01FC01EE0FFF1FE80FF91FEE0FFF1F90
:10078A00EE59FF4F80819181892B49F482E090E0F4
:10079A009093B1008093B00081E090E002C080E0C5
:1007AA0090E0F901EE0FFF1FDF01A20FB31FAA0F9E
:1007BA00BB1FAE59BF4F11961C921E9212961C92E5
:1007CA00129713961C921397FD01158214820895AD
:1007DA000F931F93CF93DF93C0E0D0E01FC0FE01B9
:1007EA00EE0FFF1FEC0FFD1FEE0FFF1FEE59FF4F1D
:1007FA0084819581892B89F08F010190F081E02D08
:10080A000995F80184819581019795838483838171
:10081A00811103C0CE010E94BD032196C830D105C3
:10082A00F0F20E94D505DF91CF911F910F910895A3
:10083A00813079F028F08230A9F08330E1F0089510
:10084A00613019F48FEF8ABB089561111CC01ABA7E
:10085A000895613019F48FEF87BB0895611113C0B1
:10086A0017BA0895613019F48FEF84BB08956111A6
:10087A000AC014BA0895613019F48FEF81BB089544
:08088A00611101C011BA0895CB
:100892001F920F920FB60F9211242F933F934F93F3
:1008A2005F936F937F938F939F93AF93BF93EF93D6
:1008B200FF9380916000813019F40E94220203C0EC
:1008C200811101C0F894FF91EF91BF91AF919F9177
:1008D2008F917F916F915F914F913F912F910F90E7
:0808E2000FBE0F901F90189546
:1008EA00CF93DF930E9428068091B5008130D9F416
:1008FA00C091B400D0E00E942C0696958795029785
:10090A00CC0FDD1FCE56DF4F998388838091B400C8
:10091A008F5F8093B4008A3031F41092B4000E9441
:0C092A00E00480936100DF91CF910895FC
:10093600CF93DF93C0E0D0E004C0CE010E94BD0398
:100946002196C830D105C8F31092B1001092B000BC
:1009560089B7806189BF8FB780688FBF8FB58FBD1C
:100966001DBC1CBC80E190E09BBD8ABD8DE08EBDA8
:06097600DF91CF9108950E
:10097C0040E063E081E00E94630040E064E081E0DD
:10098C000E94630042E062E081E00E94630041E06B
:10099C0063E081E00E94D80041E064E081E00E94C5
:1009AC00D80081E08093B5008CE38093B8000E945E
:0409BC001D06089577
:1009C00020E030E080E00BC0E82FF0E0EE0FFF1FEA
:1009D000EE56FF4F40815181240F351F8F5F8A30C3
:1009E00098F3ADECBCEC0E94AE0596958795969574
:0809F0008795969587950895FF
:1009F80086B1806886B987B18F7787B987B18064F7
:100A080087B987B18F7D87B986B18F7D86B986B161
:100A1800816086B986B1826086B986B1846086B9FC
:020A280008952F
:100A2A00CF93DF93C82FD62F0E940B0680EA0E942D
:100A3A00F8058D2F0E94F8058C2F0E94F8050E9458
:080A4A003206DF91CF910895FF
:100A52008091B50081110EC08091B700811106C04E
:100A620081E08093B7000E949F050895813011F4C0
:060A72001092B700089588
:100A7800813041F028F0823039F0833039F008C0F5
:100A880089B3089586B3089583B3089580B308950C
:040A980080E008955D
:100A9C0061E083E00E941D0441E063E082E00E947B
:100AAC00630041E063E082E00E9463000E949F05C6
:020ABC0008959B
:100ABE00882341F0813059F441E067E082E00E94E2
:100ACE00D800089540E067E082E00E94D8000895C3
:100ADE00813041F028F0823039F0833039F00895BA
:100AEE006BBB089568BB089565BB089562BB0895FE
:100AFE00882341F0813059F441E066E082E00E94A3
:100B0E00D800089540E066E082E00E94D800089583
:100B1E000E9435069091B500992339F0913039F441
:100B2E00809161000E946C0208950E946C020895EB
:100B3E0060E083E00E946F0540E063E082E00E9487
:0E0B4E00D80040E064E082E00E94D8000895E4
:100B5C00A29FB001B39FC001A39F700D811D1124F2
:0E0B6C00911DB29F700D811D1124911D0895E1
:100B7A0040E061E080E00E9463000E94FC0481E0A2
:0A0B8A000E94E8050E942806089565
:100B940080E00E945F0580E00E947F050E949F051F
:060BA4000E9417060895EF
:100BAA0085B78F7B85BF85B78F7D85BF85B78F7EDC
:040BBA0085BF089556
:100BBE0088E480B984E486BF11B881B18C7F81B995
:020BCE00089588
:100BD00097B1907E97B997B18770982B97B9089580
:100BE00041E065E082E00E9463000E9417060895DC
:0E0BF00083B984E886BF06B607FEFDCF0895E0
:0C0BFE0041E067E082E00E94630008957F
:0C0C0A0041E066E082E00E946300089573
:0C0C160084EA86BF06B607FEFDCF0895F5
:0C0C220041E065E082E00E94D8000895E7
:0C0C2E0040E065E082E00E94D8000895DC
:0C0C3A0060E0809161000E9415050895A3
:0A0C460065E082E00E942203089599
:080C500086B1806486B90895A5
:060C580084B195B108957E
:060C5E000E94DF0508956D
:060C640084E986BF08953B
:060C6A008091B80008951E
:040C70000C940000E0
:040C740078940895D3
:0A0C7800C0F9A4B0999282F88090B0
:010C82000170
:010C8300016F
:010C8400016E
:00000001FF
